{
  "contractName": "DigitalIdentity",
  "abi": [
    {
      "constant": true,
      "inputs": [],
      "name": "getAddress",
      "outputs": [
        {
          "name": "",
          "type": "address"
        }
      ],
      "payable": false,
      "stateMutability": "view",
      "type": "function"
    },
    {
      "constant": false,
      "inputs": [
        {
          "name": "_address",
          "type": "address"
        }
      ],
      "name": "setAddress",
      "outputs": [],
      "payable": false,
      "stateMutability": "nonpayable",
      "type": "function"
    },
    {
      "constant": false,
      "inputs": [],
      "name": "loginUser",
      "outputs": [],
      "payable": false,
      "stateMutability": "nonpayable",
      "type": "function"
    },
    {
      "constant": false,
      "inputs": [],
      "name": "loginCustomer",
      "outputs": [],
      "payable": false,
      "stateMutability": "nonpayable",
      "type": "function"
    },
    {
      "constant": false,
      "inputs": [],
      "name": "loginPartner",
      "outputs": [],
      "payable": false,
      "stateMutability": "nonpayable",
      "type": "function"
    },
    {
      "constant": false,
      "inputs": [
        {
          "name": "_firstname",
          "type": "string"
        },
        {
          "name": "_lastname",
          "type": "string"
        },
        {
          "name": "_gender",
          "type": "string"
        },
        {
          "name": "_dob",
          "type": "uint256"
        },
        {
          "name": "_home_address",
          "type": "string"
        },
        {
          "name": "_sch_name",
          "type": "string"
        },
        {
          "name": "_yr",
          "type": "uint256"
        },
        {
          "name": "_course",
          "type": "string"
        }
      ],
      "name": "setInfo",
      "outputs": [],
      "payable": false,
      "stateMutability": "nonpayable",
      "type": "function"
    },
    {
      "constant": true,
      "inputs": [],
      "name": "getInfo",
      "outputs": [
        {
          "name": "",
          "type": "string"
        },
        {
          "name": "",
          "type": "string"
        },
        {
          "name": "",
          "type": "string"
        },
        {
          "name": "",
          "type": "uint256"
        },
        {
          "name": "",
          "type": "string"
        },
        {
          "name": "",
          "type": "string"
        },
        {
          "name": "",
          "type": "uint256"
        },
        {
          "name": "",
          "type": "string"
        }
      ],
      "payable": false,
      "stateMutability": "view",
      "type": "function"
    },
    {
      "constant": false,
      "inputs": [
        {
          "name": "_home_address",
          "type": "string"
        }
      ],
      "name": "updateInfo",
      "outputs": [],
      "payable": false,
      "stateMutability": "nonpayable",
      "type": "function"
    },
    {
      "constant": false,
      "inputs": [],
      "name": "userVerify",
      "outputs": [],
      "payable": false,
      "stateMutability": "nonpayable",
      "type": "function"
    }
  ],
  "bytecode": "0x608060405273b34d08317630c7a7c3fe06d134ffb636488d7362600160006101000a81548173ffffffffffffffffffffffffffffffffffffffff021916908373ffffffffffffffffffffffffffffffffffffffff16021790555073423a09847441282fa0bfbcb8ce88116fa4264d4c600260006101000a81548173ffffffffffffffffffffffffffffffffffffffff021916908373ffffffffffffffffffffffffffffffffffffffff16021790555073de8636024c0daa5f883ec0d694ca03d12b9f6eae600360006101000a81548173ffffffffffffffffffffffffffffffffffffffff021916908373ffffffffffffffffffffffffffffffffffffffff16021790555034801561010f57600080fd5b50611d878061011f6000396000f300608060405260043610610099576000357c0100000000000000000000000000000000000000000000000000000000900463ffffffff1680631def26101461009e57806338666d42146100b557806338cc4831146100cc57806355abbd01146101235780635a9b0b89146102fe578063637885e9146105b8578063a19ed686146105cf578063ab29511b146105e6578063e30081a01461064f575b600080fd5b3480156100aa57600080fd5b506100b3610692565b005b3480156100c157600080fd5b506100ca6106d5565b005b3480156100d857600080fd5b506100e1610992565b604051808273ffffffffffffffffffffffffffffffffffffffff1673ffffffffffffffffffffffffffffffffffffffff16815260200191505060405180910390f35b34801561012f57600080fd5b506102fc600480360381019080803590602001908201803590602001908080601f0160208091040260200160405190810160405280939291908181526020018383808284378201915050505050509192919290803590602001908201803590602001908080601f0160208091040260200160405190810160405280939291908181526020018383808284378201915050505050509192919290803590602001908201803590602001908080601f016020809104026020016040519081016040528093929190818152602001838380828437820191505050505050919291929080359060200190929190803590602001908201803590602001908080601f0160208091040260200160405190810160405280939291908181526020018383808284378201915050505050509192919290803590602001908201803590602001908080601f016020809104026020016040519081016040528093929190818152602001838380828437820191505050505050919291929080359060200190929190803590602001908201803590602001908080601f01602080910402602001604051908101604052809392919081815260200183838082843782019150505050505091929192905050506109bc565b005b34801561030a57600080fd5b506103136110a7565b6040518080602001806020018060200189815260200180602001806020018881526020018060200187810387528f818151815260200191508051906020019080838360005b83811015610373578082015181840152602081019050610358565b50505050905090810190601f1680156103a05780820380516001836020036101000a031916815260200191505b5087810386528e818151815260200191508051906020019080838360005b838110156103d95780820151818401526020810190506103be565b50505050905090810190601f1680156104065780820380516001836020036101000a031916815260200191505b5087810385528d818151815260200191508051906020019080838360005b8381101561043f578082015181840152602081019050610424565b50505050905090810190601f16801561046c5780820380516001836020036101000a031916815260200191505b5087810384528b818151815260200191508051906020019080838360005b838110156104a557808201518184015260208101905061048a565b50505050905090810190601f1680156104d25780820380516001836020036101000a031916815260200191505b5087810383528a818151815260200191508051906020019080838360005b8381101561050b5780820151818401526020810190506104f0565b50505050905090810190601f1680156105385780820380516001836020036101000a031916815260200191505b50878103825288818151815260200191508051906020019080838360005b83811015610571578082015181840152602081019050610556565b50505050905090810190601f16801561059e5780820380516001836020036101000a031916815260200191505b509e50505050505050505050505050505060405180910390f35b3480156105c457600080fd5b506105cd611799565b005b3480156105db57600080fd5b506105e46117dc565b005b3480156105f257600080fd5b5061064d600480360381019080803590602001908201803590602001908080601f016020809104026020016040519081016040528093929190818152602001838380828437820191505050505050919291929050505061181f565b005b34801561065b57600080fd5b50610690600480360381019080803573ffffffffffffffffffffffffffffffffffffffff169060200190929190505050611c18565b005b33600360006101000a81548173ffffffffffffffffffffffffffffffffffffffff021916908373ffffffffffffffffffffffffffffffffffffffff160217905550565b6106dd611c5b565b60056000600160009054906101000a900473ffffffffffffffffffffffffffffffffffffffff1673ffffffffffffffffffffffffffffffffffffffff1673ffffffffffffffffffffffffffffffffffffffff16815260200190815260200160002060806040519081016040529081600082018054600181600116156101000203166002900480601f0160208091040260200160405190810160405280929190818152602001828054600181600116156101000203166002900480156107e35780601f106107b8576101008083540402835291602001916107e3565b820191906000526020600020905b8154815290600101906020018083116107c657829003601f168201915b5050505050815260200160018201548152602001600282018054600181600116156101000203166002900480601f01602080910402602001604051908101604052809291908181526020018280546001816001161561010002031660029004801561088f5780601f106108645761010080835404028352916020019161088f565b820191906000526020600020905b81548152906001019060200180831161087257829003601f168201915b505050505081526020016003820160009054906101000a900460ff161515151581525050905060018160600190151590811515815250508060056000600160009054906101000a900473ffffffffffffffffffffffffffffffffffffffff1673ffffffffffffffffffffffffffffffffffffffff1673ffffffffffffffffffffffffffffffffffffffff1681526020019081526020016000206000820151816000019080519060200190610944929190611c86565b5060208201518160010155604082015181600201908051906020019061096b929190611c86565b5060608201518160030160006101000a81548160ff02191690831515021790555090505050565b6000600160009054906101000a900473ffffffffffffffffffffffffffffffffffffffff16905090565b6109c4611d06565b6109cc611c5b565b60046000600160009054906101000a900473ffffffffffffffffffffffffffffffffffffffff1673ffffffffffffffffffffffffffffffffffffffff1673ffffffffffffffffffffffffffffffffffffffff16815260200190815260200160002060a06040519081016040529081600082018054600181600116156101000203166002900480601f016020809104026020016040519081016040528092919081815260200182805460018160011615610100020316600290048015610ad25780601f10610aa757610100808354040283529160200191610ad2565b820191906000526020600020905b815481529060010190602001808311610ab557829003601f168201915b50505050508152602001600182018054600181600116156101000203166002900480601f016020809104026020016040519081016040528092919081815260200182805460018160011615610100020316600290048015610b745780601f10610b4957610100808354040283529160200191610b74565b820191906000526020600020905b815481529060010190602001808311610b5757829003601f168201915b50505050508152602001600282018054600181600116156101000203166002900480601f016020809104026020016040519081016040528092919081815260200182805460018160011615610100020316600290048015610c165780601f10610beb57610100808354040283529160200191610c16565b820191906000526020600020905b815481529060010190602001808311610bf957829003601f168201915b5050505050815260200160038201548152602001600482018054600181600116156101000203166002900480601f016020809104026020016040519081016040528092919081815260200182805460018160011615610100020316600290048015610cc25780601f10610c9757610100808354040283529160200191610cc2565b820191906000526020600020905b815481529060010190602001808311610ca557829003601f168201915b50505050508152505091508982600001819052508882602001819052508782604001819052508682606001818152505085826080018190525060056000600160009054906101000a900473ffffffffffffffffffffffffffffffffffffffff1673ffffffffffffffffffffffffffffffffffffffff1673ffffffffffffffffffffffffffffffffffffffff16815260200190815260200160002060806040519081016040529081600082018054600181600116156101000203166002900480601f016020809104026020016040519081016040528092919081815260200182805460018160011615610100020316600290048015610e015780601f10610dd657610100808354040283529160200191610e01565b820191906000526020600020905b815481529060010190602001808311610de457829003601f168201915b5050505050815260200160018201548152602001600282018054600181600116156101000203166002900480601f016020809104026020016040519081016040528092919081815260200182805460018160011615610100020316600290048015610ead5780601f10610e8257610100808354040283529160200191610ead565b820191906000526020600020905b815481529060010190602001808311610e9057829003601f168201915b505050505081526020016003820160009054906101000a900460ff1615151515815250509050848160000181905250838160200181815250508281604001819052508160046000600160009054906101000a900473ffffffffffffffffffffffffffffffffffffffff1673ffffffffffffffffffffffffffffffffffffffff1673ffffffffffffffffffffffffffffffffffffffff1681526020019081526020016000206000820151816000019080519060200190610f6d929190611c86565b506020820151816001019080519060200190610f8a929190611c86565b506040820151816002019080519060200190610fa7929190611c86565b50606082015181600301556080820151816004019080519060200190610fce929190611c86565b509050508060056000600160009054906101000a900473ffffffffffffffffffffffffffffffffffffffff1673ffffffffffffffffffffffffffffffffffffffff1673ffffffffffffffffffffffffffffffffffffffff1681526020019081526020016000206000820151816000019080519060200190611050929190611c86565b50602082015181600101556040820151816002019080519060200190611077929190611c86565b5060608201518160030160006101000a81548160ff02191690831515021790555090505050505050505050505050565b606080606060006060806000606060046000600160009054906101000a900473ffffffffffffffffffffffffffffffffffffffff1673ffffffffffffffffffffffffffffffffffffffff1673ffffffffffffffffffffffffffffffffffffffff16815260200190815260200160002060000160046000600160009054906101000a900473ffffffffffffffffffffffffffffffffffffffff1673ffffffffffffffffffffffffffffffffffffffff1673ffffffffffffffffffffffffffffffffffffffff16815260200190815260200160002060010160046000600160009054906101000a900473ffffffffffffffffffffffffffffffffffffffff1673ffffffffffffffffffffffffffffffffffffffff1673ffffffffffffffffffffffffffffffffffffffff16815260200190815260200160002060020160046000600160009054906101000a900473ffffffffffffffffffffffffffffffffffffffff1673ffffffffffffffffffffffffffffffffffffffff1673ffffffffffffffffffffffffffffffffffffffff1681526020019081526020016000206003015460046000600160009054906101000a900473ffffffffffffffffffffffffffffffffffffffff1673ffffffffffffffffffffffffffffffffffffffff1673ffffffffffffffffffffffffffffffffffffffff16815260200190815260200160002060040160056000600160009054906101000a900473ffffffffffffffffffffffffffffffffffffffff1673ffffffffffffffffffffffffffffffffffffffff1673ffffffffffffffffffffffffffffffffffffffff16815260200190815260200160002060000160056000600160009054906101000a900473ffffffffffffffffffffffffffffffffffffffff1673ffffffffffffffffffffffffffffffffffffffff1673ffffffffffffffffffffffffffffffffffffffff1681526020019081526020016000206001015460056000600160009054906101000a900473ffffffffffffffffffffffffffffffffffffffff1673ffffffffffffffffffffffffffffffffffffffff1673ffffffffffffffffffffffffffffffffffffffff168152602001908152602001600020600201878054600181600116156101000203166002900480601f01602080910402602001604051908101604052809291908181526020018280546001816001161561010002031660029004801561146c5780601f106114415761010080835404028352916020019161146c565b820191906000526020600020905b81548152906001019060200180831161144f57829003601f168201915b50505050509750868054600181600116156101000203166002900480601f0160208091040260200160405190810160405280929190818152602001828054600181600116156101000203166002900480156115085780601f106114dd57610100808354040283529160200191611508565b820191906000526020600020905b8154815290600101906020018083116114eb57829003601f168201915b50505050509650858054600181600116156101000203166002900480601f0160208091040260200160405190810160405280929190818152602001828054600181600116156101000203166002900480156115a45780601f10611579576101008083540402835291602001916115a4565b820191906000526020600020905b81548152906001019060200180831161158757829003601f168201915b50505050509550838054600181600116156101000203166002900480601f0160208091040260200160405190810160405280929190818152602001828054600181600116156101000203166002900480156116405780601f1061161557610100808354040283529160200191611640565b820191906000526020600020905b81548152906001019060200180831161162357829003601f168201915b50505050509350828054600181600116156101000203166002900480601f0160208091040260200160405190810160405280929190818152602001828054600181600116156101000203166002900480156116dc5780601f106116b1576101008083540402835291602001916116dc565b820191906000526020600020905b8154815290600101906020018083116116bf57829003601f168201915b50505050509250808054600181600116156101000203166002900480601f0160208091040260200160405190810160405280929190818152602001828054600181600116156101000203166002900480156117785780601f1061174d57610100808354040283529160200191611778565b820191906000526020600020905b81548152906001019060200180831161175b57829003601f168201915b50505050509050975097509750975097509750975097509091929394959697565b33600260006101000a81548173ffffffffffffffffffffffffffffffffffffffff021916908373ffffffffffffffffffffffffffffffffffffffff160217905550565b33600160006101000a81548173ffffffffffffffffffffffffffffffffffffffff021916908373ffffffffffffffffffffffffffffffffffffffff160217905550565b611827611d06565b60046000600160009054906101000a900473ffffffffffffffffffffffffffffffffffffffff1673ffffffffffffffffffffffffffffffffffffffff1673ffffffffffffffffffffffffffffffffffffffff16815260200190815260200160002060a06040519081016040529081600082018054600181600116156101000203166002900480601f01602080910402602001604051908101604052809291908181526020018280546001816001161561010002031660029004801561192d5780601f106119025761010080835404028352916020019161192d565b820191906000526020600020905b81548152906001019060200180831161191057829003601f168201915b50505050508152602001600182018054600181600116156101000203166002900480601f0160208091040260200160405190810160405280929190818152602001828054600181600116156101000203166002900480156119cf5780601f106119a4576101008083540402835291602001916119cf565b820191906000526020600020905b8154815290600101906020018083116119b257829003601f168201915b50505050508152602001600282018054600181600116156101000203166002900480601f016020809104026020016040519081016040528092919081815260200182805460018160011615610100020316600290048015611a715780601f10611a4657610100808354040283529160200191611a71565b820191906000526020600020905b815481529060010190602001808311611a5457829003601f168201915b5050505050815260200160038201548152602001600482018054600181600116156101000203166002900480601f016020809104026020016040519081016040528092919081815260200182805460018160011615610100020316600290048015611b1d5780601f10611af257610100808354040283529160200191611b1d565b820191906000526020600020905b815481529060010190602001808311611b0057829003601f168201915b50505050508152505090508181608001819052508060046000600160009054906101000a900473ffffffffffffffffffffffffffffffffffffffff1673ffffffffffffffffffffffffffffffffffffffff1673ffffffffffffffffffffffffffffffffffffffff1681526020019081526020016000206000820151816000019080519060200190611baf929190611c86565b506020820151816001019080519060200190611bcc929190611c86565b506040820151816002019080519060200190611be9929190611c86565b50606082015181600301556080820151816004019080519060200190611c10929190611c86565b509050505050565b806000806101000a81548173ffffffffffffffffffffffffffffffffffffffff021916908373ffffffffffffffffffffffffffffffffffffffff16021790555050565b6080604051908101604052806060815260200160008152602001606081526020016000151581525090565b828054600181600116156101000203166002900490600052602060002090601f016020900481019282601f10611cc757805160ff1916838001178555611cf5565b82800160010185558215611cf5579182015b82811115611cf4578251825591602001919060010190611cd9565b5b509050611d029190611d36565b5090565b60a06040519081016040528060608152602001606081526020016060815260200160008152602001606081525090565b611d5891905b80821115611d54576000816000905550600101611d3c565b5090565b905600a165627a7a72305820fae111552878e459df788d997ea8d7ec531851b89cdd9a58942ff68491a8cd1e0029",
  "source": "pragma solidity 0.4.24;\r\n\r\ncontract DigitalIdentity {\r\n\r\n    //to do:\r\n    //1. getinfo only partners, user\r\n    //2. school name => address => send notification (Gov. ids)\r\n    //3. mapping inside educ\r\n    //4. self update visible private\r\n\r\n    address myAddress;\r\n\r\n    function getAddress() constant public returns (address) {\r\n      return user;\r\n    }\r\n\r\n    function setAddress(address _address) public {\r\n      myAddress = _address;\r\n    }\r\n\r\n    struct userDetails {\r\n        string firstname;\r\n        string lastname;\r\n        string gender;\r\n        uint dob;\r\n\r\n        //updatable information\r\n        string home_address;\r\n    }\r\n\r\n    struct educationalBackground {\r\n        string sch_name;\r\n        uint yr;\r\n        string course;\r\n        bool status;\r\n    }\r\n\r\n    address user = 0xb34d08317630C7a7C3FE06d134ffb636488d7362;\r\n    address customer = 0x423a09847441282FA0bFBCB8Ce88116FA4264d4C;\r\n    address partner = 0xde8636024C0DaA5F883EC0d694cA03d12b9f6eAe;\r\n\r\n    mapping(address => userDetails) uInfo;\r\n\r\n    mapping(address => educationalBackground) educBackground;\r\n\r\n    modifier onlyUser() {\r\n        require(msg.sender == user, \"Not Authorized\");\r\n        _;\r\n    }\r\n\r\n    modifier onlyCustomer() {\r\n        require(msg.sender == customer, \"Noy Authorized\");\r\n        _;\r\n    }\r\n\r\n\r\n    modifier onlyPartner() {\r\n        require(msg.sender == partner, \"Not Authorized\");\r\n        _;\r\n    }\r\n\r\n    function loginUser() public {\r\n        user = msg.sender;\r\n    }\r\n\r\n    function loginCustomer() public {\r\n        customer = msg.sender;\r\n    }\r\n\r\n    function loginPartner() public {\r\n        partner = msg.sender;\r\n    }\r\n\r\n    function setInfo(string _firstname,\r\n                    string _lastname,\r\n                    string _gender,\r\n                    uint _dob,\r\n                    string _home_address,\r\n                    string _sch_name,\r\n                    uint _yr,\r\n                    string _course) public {\r\n\r\n        userDetails memory newUserDetails = uInfo[user];\r\n        // fixed info\r\n        newUserDetails.firstname = _firstname;\r\n        newUserDetails.lastname = _lastname;\r\n        newUserDetails.gender = _gender;\r\n        newUserDetails.dob = _dob;\r\n        // updatable\r\n        newUserDetails.home_address = _home_address;\r\n\r\n        educationalBackground memory newEducationalBackground = educBackground[user];\r\n        newEducationalBackground.sch_name = _sch_name;\r\n        newEducationalBackground.yr = _yr;\r\n        newEducationalBackground.course = _course;\r\n\r\n        uInfo[user] = newUserDetails;\r\n        educBackground[user] = newEducationalBackground;\r\n    }\r\n\r\n\r\n\r\n    function getInfo() constant public returns(string, string, string, uint, string, string, uint, string) {\r\n\r\n        return (uInfo[user].firstname,\r\n                uInfo[user].lastname,\r\n                uInfo[user].gender,\r\n                uInfo[user].dob,\r\n                uInfo[user].home_address,\r\n                educBackground[user].sch_name,\r\n                educBackground[user].yr,\r\n                educBackground[user].course\r\n                );\r\n    }\r\n\r\n    function updateInfo(string _home_address) public {\r\n\r\n        userDetails memory newUserDetails = uInfo[user];\r\n        newUserDetails.home_address = _home_address;\r\n\r\n        uInfo[user] = newUserDetails;\r\n    }\r\n\r\n    function userVerify() public {\r\n        educationalBackground memory newEducationalBackground = educBackground[user];\r\n\r\n        newEducationalBackground.status = true;\r\n        educBackground[user] = newEducationalBackground;\r\n    }\r\n}\r\n",
  "sourcePath": "C:\\Users\\jmarc\\Desktop\\conacademy\\contracts\\DigitalIdentity.sol",
  "compiler": {
    "name": "solc",
    "version": "0.4.24+commit.e67f0147.Emscripten.clang"
  },
  "schemaVersion": "2.0.1",
  "updatedAt": "2018-11-29T08:20:53.802Z"
}